:1000000000000320D501000051020000315500001E
:1000100055020000570200005902000000000000D5
:100020000000000000000000000000005B02000073
:100030005D020000000000005F020000E10F000010
:10004000895200009152000099520000A152000014
:10005000A9520000B1520000B9520000C152000084
:10006000C9520000D1520000D9520000E1520000F4
:10007000E9520000F1520000F95200000153000063
:1000800009530000115300001953000021530000D0
:100090002953000031530000395300004153000040
:1000A00049530000515300005953000061530000B0
:1000B0006953000071530000795300008153000020
:1000C000895300009153000099530000A153000090
:1000D000A9530000B1530000B9530000C153000000
:1000E000C9530000D153000005100000D95300008F
:1000F000E1530000E9530000F1530000F953000000
:10010000015400000954000011540000195400006B
:1001100021540000295400003154000039540000DB
:10012000415400004954000051540000595400004B
:1001300061540000695400007154000079540000BB
:10014000815400008954000091540000995400002B
:10015000A1540000A9540000B1540000B95400009B
:10016000C1540000C9540000D1540000D95400000B
:10017000E1540000E9540000F1540000F95400007B
:1001800001550000095500001155000019550000E7
:100190002155000029550000D089000000000020F2
:1001A00018000000D08900000000FF1F00000000C0
:1001B000D08900000000001400000000180000209A
:1001C000C80100000000FF1F000000000000001434
:1001D0000000000010B572B603F060FD0D4B07E0A3
:1001E00003F10C049A685968186800F019F823465E
:1001F000094A9342F4D306E01C46596854F8080BA8
:1002000000F01DF82346054A9342F5D362B606F086
:1002100024F9FEE798010000BC010000D4010000B1
:10022000002393420AD210B404680C6004330430F3
:1002300004319342F8D35DF8044B704770470023B4
:1002400003E000220260043304308B42F9D370478C
:10025000FEE7FEE7FEE7FEE7FEE7FEE7FEE7FEE776
:10026000FEE7FEE7FFFFFFFFFFFFFFFFFFFFFFFFD0
:10027000FFFFFFFFFFFFFFFFFFFFFFFFFFFFFFFF8E
:10028000FFFFFFFFFFFFFFFFFFFFFFFFFFFFFFFF7E
:10029000FFFFFFFFFFFFFFFFFFFFFFFFFFFFFFFF6E
:1002A000FFFFFFFFFFFFFFFFFFFFFFFFFFFFFFFF5E
:1002B000FFFFFFFFFFFFFFFFFFFFFFFFFFFFFFFF4E
:1002C000FFFFFFFFFFFFFFFFFFFFFFFFFFFFFFFF3E
:1002D000FFFFFFFFFFFFFFFFFFFFFFFFFFFFFFFF2E
:1002E000FFFFFFFFFFFFFFFFFFFFFFFFFFFFFFFF1E
:1002F000FFFFFFFFFFFFFFFFFFFFFFFFFFFFFFFF0E
:10030000FFFFFFFFFFFFFFFFFFFFFFFFFFFFFFFFFD
:10031000FFFFFFFFFFFFFFFFFFFFFFFFFFFFFFFFED
:10032000FFFFFFFFFFFFFFFFFFFFFFFFFFFFFFFFDD
:10033000FFFFFFFFFFFFFFFFFFFFFFFFFFFFFFFFCD
:10034000FFFFFFFFFFFFFFFFFFFFFFFFFFFFFFFFBD
:10035000FFFFFFFFFFFFFFFFFFFFFFFFFFFFFFFFAD
:10036000FFFFFFFFFFFFFFFFFFFFFFFFFFFFFFFF9D
:10037000FFFFFFFFFFFFFFFFFFFFFFFFFFFFFFFF8D
:10038000FFFFFFFFFFFFFFFFFFFFFFFFFFFFFFFF7D
:10039000FFFFFFFFFFFFFFFFFFFFFFFFFFFFFFFF6D
:1003A000FFFFFFFFFFFFFFFFFFFFFFFFFFFFFFFF5D
:1003B000FFFFFFFFFFFFFFFFFFFFFFFFFFFFFFFF4D
:1003C000FFFFFFFFFFFFFFFFFFFFFFFFFFFFFFFF3D
:1003D000FFFFFFFFFFFFFFFFFFFFFFFFFFFFFFFF2D
:1003E000FFFFFFFFFFFFFFFFFFFFFFFFFFFFFFFF1D
:1003F000FFFFFFFFFFFFFFFFFFFFFFFFFFFFFFFF0D
:10040000FFFFFFFFFFFFFFFFFFFFFFFFFEFFFFFFFD
:100410002DE9F04F2DED048B91ED007B9DB08DED1E
:10042000047B0693059B07931446079ADDF8ACB04E
:1004300047F6F07333EA124381462CD10023E37070
:10044000C2F31303049A13434FF06E031DD163707C
:100450006623A370079B6922002B227009DAB04B38
:100460002A9A0326136030461DB0BDEC048BBDE80C
:10047000F08F069B9C0706D4AA4A13F0040FAA4BE0
:1004800018BF1346ECE7A94BEAE761222370A3707B
:100490006270A54BE4E720F02003412B00F0AD8211
:1004A00000220023DDE9040106F02AFB00283ED0EB
:1004B000DDE9046303F1004701230C9300220023CC
:1004C0003046394606F004FB002840F090820FA821
:1004D00047EC106B00F058FC0F9840F22D1343438B
:1004E000A3F5AB538DED100B1C3B4FF47A729FEDCF
:1004F000820B93FBF2FAAAEB000000F079FCBAF150
:10050000000F8DED1A0B16DA7DA3D3E90023CDE998
:100510001623CAF10005E80715D4DDE91601DDE967
:10052000162304F027FC6D10CDE91601F3E7DDE991
:1005300004670C90C2E77E4B4FF00002CDE9162312
:100540000BD05546E7E7DDE91601DDE91A2304F093
:1005500011FC012DCDE91A01DFD1DDE91001DDE942
:100560001A2304F095FCCDE91201724F0026DDE953
:10057000120165A3D3E9002306F0C2FA002840F077
:1005800094806C4F0026DDE9120161A3D3E90023BA
:1005900006F00FFB002840F09B80DDE9120106F019
:1005A0004BFA9FED5D8B8AEAEA739FED559BA3EBB7
:1005B000EA7305460D93284606F081FA0F9EAAEBD2
:1005C000060641EC100B304600F012FCBAF1000FA9
:1005D0008DED120B8DED148B80F2B0808DED169B9E
:1005E0008DED188BDDE91667DDE916019DED187BB1
:1005F000002632463B468DED087B04F0E5FCDDE944
:10060000082304F0BBFDCDE91801CDE916670022EF
:10061000474BDDE9160104F0ADFB02460B46002016
:10062000454904F0D1FC0022414B04F031FCCDE9F6
:100630001801DDF8348018F0010F40F09180DDE9F9
:1006400016239DED187BDDE91867104619468DEDE0
:10065000087B04F093FDDDE9082304F08FFD3246AA
:100660003B4604F087FBCDE91801DDE91601DDE921
:10067000162304F07FFBCDE91601DDE91667DDE9FD
:1006800016019DED187B002632463B468DED087B1A
:1006900004F09AFCDDE9082304F070FD4FEA6808D5
:1006A000CDE91801CDE91667C5E7DDE9120132464B
:1006B0003B4604F05FFBCDE91201DDE91A01324649
:1006C0003B4604F0E5FB0AF1FF3ACDE91A014EE79B
:1006D000DDE9120132463B4604F0DAFBCDE91201B6
:1006E000DDE91A0132463B4604F044FB0AF1010AF7
:1006F000CDE91A0147E700BF000000000000F03F0D
:100700009A9999999999C93F00000000006AF840A8
:100710000000000080842E41000000000000000066
:10072000998900004F8900006889000069890000EC
:1007300000001440000024400000F03F9FEDB67B15
:100740008DED167B8DED188B7FF473AFDDE9120113
:10075000DDE9102306F000FA002847D1013D2AE721
:100760009DED127B8DED087B9DED187BDDE916017B
:10077000DDE91823DDE914678DED0A7B04F0FEFC4A
:1007800032463B4604F0F6FADDE90A2306460F46F8
:10079000DDE9080104F0EEFA02460B463046394620
:1007A00004F0ECFCCDE91401DDE91601DDE91223CA
:1007B00004F0E0FACDE91201DDE91267DDE912018A
:1007C0009DED147B002632463B468DED087B04F000
:1007D000FBFBDDE9082304F0D1FCB8F1010FCDE902
:1007E0001401CDE912677FF42AAFAFE7DDE91223E8
:1007F000DDE9100104F0E8FBCDE91001DDE9142387
:10080000DDE9100104F0E0FBCDE91001DDE91A2378
:10081000DDE9100104F03CFBCDE91001DDE9100138
:100820008AA3D3E9002304F0A5FACDE91001DDE99C
:10083000100106F001F9DDE91067804606F03FF986
:1008400002460B463046394604F0BEFB7FA3D3E98F
:10085000002304F08FFACDE91001DDE9100106F064
:10086000EBF80646002EC0F28E806D4B9E4200F3E0
:100870009180B8F1000FC0F29480694B984500F365
:100880009680684A954200F398806748674B98FBCA
:10089000F3F20A2196FBF3F300FB028800FB0366E8
:1008A00001FB052501FB08384E430AF1FF3A2146BA
:1008B000302701F8067B284605F02BFF04F10C01D8
:1008C000404605F026FF304604F1120105F021FFF5
:1008D000002323750C9BE7740AF1050043EA8000AE
:1008E000C10740F18C80524B2A9ADBF800601360FC
:1008F000B9F1610F20F001004FF0040590FBF5F510
:100900000DD000F3A780B9F1450F00F0AF80B9F129
:10091000470F00F0E681B9F1410F40F0E081079BFD
:10092000C3F31301049B1F461A46079B4FF00008B0
:10093000002048EA0108C3F30A510743002900F0E8
:100940000881A1F2FF30002E40F00981069B1B07B1
:1009500000F10581002903463649374814BF31228A
:100960003022B9F1610F18BF0146204603F0B6FAF4
:10097000324A05992E4B13EA210338BF13462A9AAF
:10098000064613606FE506F5742606F5107608F145
:10099000FF3867E7A6F57426A6F5107608F101087A
:1009A00064E708F5742808F51078013D61E7A8F5BB
:1009B0007428A8F51078013560E79D427FF777AF7E
:1009C0006FF009031E480A2295FBF2F103FB015563
:1009D00000FB058595FBF2F803FB085300FB03665B
:1009E00005360AF1010A96FBF2F60D465FE700268E
:1009F0006FF0040AB046354659E7002070E7069BC1
:100A00009A0706D40F4A13F0040F0C4B18BF134675
:100A10006AE70D4B68E700BF0000000000001440CB
:100A20003F420F009F8601006079FEFFA086010013
:100A3000998900006B8900007389000068890000B3
:100A400040420F004F89000069890000000000004B
:100A500080842E41B9F1660F00F06081B9F1670F13
:100A600000F03F81B9F1650F40F03981DBF80030CB
:100A7000112B05DD2D9A113B13601123CBF80030AB
:100A8000069BDBF8006013F4006706F1020604D150
:100A90003146204605F016FE054463782370DBF8E6
:100AA000003023B9069A40F608031A4269D02E2373
:100AB00063702D9B1B68002BC2BF3E23A3550136DC
:100AC00077B1069B1F070BD4A219161B12F8013D24
:100AD000302BFAD03E2BF8D02E2B08BF06F1FF3674
:100AE000002D06F10102BABF6D422D212B21B5F573
:100AF0007A7F04F8069006F10203A1540ADB4FF452
:100B00007A7295FBF2F202F13001E154994B03FB4A
:100B10000255F31C632D0ADD642295FBF2F202F10B
:100B20003001E1546FF0630101FB025501330A22E9
:100B300095FBF2F2D2B202F13001E1549E1C1C444A
:100B4000C2EB4213C2EB8302303505EB4202627006
:100B500089E457EA0803884808BF0020F3E6002923
:100B600002908649864814BF31223022CDE90078B0
:100B7000B9F1610F18BF01463346204603F0AEF9C4
:100B8000F6E6012695E72B449E1C122EC1BF2D9A36
:100B9000113B1360132677B93146204605F092FDCC
:100BA00048B17FEA050806F1010604D16378237095
:100BB0002E236370C9E0B8F1010F04EB06030CD1DA
:100BC0001A1B002A02DC01363023F0E713F8012952
:100BD0009A70F5E713F80129DA701A1B002AF9DC7C
:100BE000302323702E2363702C9A3C23A37008F1CA
:100BF000FF3302361360A8E005EB030808F1020694
:100C0000122E4EDD87BB1321204605F05BFD58B345
:100C100001351426721EAA42234627DD5A7803F8AE
:100C2000012B1A1B9542F9DA63192E225A70DBF850
:100C300000301D442D9B113D1D60002D40F08A8029
:100C4000002F42D0069B18073FF50DACA219161BCA
:100C500012F8013D302BFAD03E2BF8D02E2B7FF42A
:100C600002AC013EFFF7FFBB1326D3E7597803F828
:100C7000011B191B8A42F9DCA3193C2203F8012C41
:100C8000AD1B2C9B2E2202351D60A255DBF80020E7
:100C9000731C002A68D02D990A603E220236E25465
:100CA000CEE73FB93146204605F00CFD10B10135C5
:100CB00008F1030623465A7803F8012B1A1B9542C4
:100CC000F9DA25442E236B70BAE7DBF80030002BED
:100CD0007FF4C9AB069B19073FF5C5ABC1E74FF0E1
:100CE0006709069B002E43F400630693DCBF0123D3
:100CF000CBF80030DBF800101129A8BF1121013119
:100D0000204605F0DFFCDBF800300544AB4225DD72
:100D10002A1D23DB6A1C9B1ACBF80030069ADBF8ED
:100D20000030002D02F40067BFF666AFC5F1000881
:100D30005A1C4245BFF627AF302323702E23637021
:100D40002D9ADBF80030136002262D9B1B68002BC8
:100D50007FF776AF3E23A355013671E7013BCBF811
:100D60000030A9F1020981E61E46002F7FF46AAF28
:100D7000B0E700BF18FCFFFF01FCFFFF7B8900000C
:100D80008A890000FFFFFFFFF8B555EC104B0646BF
:100D90000022002310EE100A294605F099FE20B12A
:100DA0009FED110B00233360F8BDC5F30A512246B5
:100DB0002B46A1F2FE3079B9C5F31301E70F01F418
:100DC000002547EA4101C1F3130164000DB9013860
:100DD000F4E761F31303224640F2FE3161F31E5340
:100DE000306043EC102BDFE7000000000000000043
:100DF00070B555EC104B06460022002310EE100A89
:100E0000294605F065FE10B19FED0B0B70BDC5F3D3
:100E10000A53334440F2FE72934206DD084B22220D
:100E20001A60084B93ED000BF0E7002BECDD63F349
:100E30001E5545EC104BE9E70000000000000000E3
:100E4000D0010020B86C000080B483B000AF03462E
:100E5000FB7197F90730002B0BDBFB7903F01F02C6
:100E6000074997F907305B09012000FA02F241F8BF
:100E7000232000BF0C37BD465DF8047B704700BFE0
:100E800000E100E080B483B000AF03463960FB713D
:100E900097F90730002B0ADB3B68DAB20C4997F967
:100EA00007301201D2B20B4483F800230AE03B68FA
:100EB000DAB20849FB7903F00F03043B1201D2B206
:100EC0000B441A7600BF0C37BD465DF8047B7047B3
:100ED00000E100E000ED00E080B582B000AF786096
:100EE0007B68013BB3F1807F01D301230FE00A4A05
:100EF0007B68013B53600F214FF0FF30FFF7C2FFCB
:100F0000054B00229A60044B07221A600023184602
:100F10000837BD4680BD00BF10E000E080B582B05C
:100F200000AF786039603B680F2B02D9094802F0A6
:100F3000D3FE7A683B6813441B78DBB263F07F030F
:100F4000D9B27A683B6813440A461A7000BF083762
:100F5000BD4680BDC06C000080B584B000AFF860B5
:100F6000B9607A60BB680F2B02D90D4802F0B4FE5D
:100F7000FA68BB6813441B78DBB223F03F03DAB294
:100F80007B68DBB203F03F03DBB21343D9B2FA68EC
:100F9000BB6813440A461A7000BF1037BD4680BDB7
:100FA0000C6D000080B485B000AFF860B9607A6065
:100FB0003B607B68002B06D1064B1A88064B1A80D3
:100FC000064B01221A7000BF1437BD465DF8047B42
:100FD000704700BFD6010020D4010020140000207B
:100FE00080B400AF064B1B68002B04D0044B1B6879
:100FF000013B034A136000BFBD465DF8047B7047A8
:101000008000002080B500AF4FF40071114804F05B
:1010100020FE114B1B78DBB2002B07D00E4B0022B9
:101020001A700E4A0E490F4802F04CFA0E4B1B681C
:10103000DBB21A4600210D4804F0C1FA0A4B1B68C6
:10104000002B0CBF01230023DBB21A46064B1A60AB
:1010500000BF80BD00800340140000206800002015
:1010600018000020006006400400002040F00F40FF
:1010700080B485B000AFF860B9603B601346FB8078
:10108000FB88322B10D1BB68022B02D0032B05D07A
:101090000AE0094B1A883B681A8005E03B681B8808
:1010A0001A46064B1A6000BF002318461437BD4687
:1010B0005DF8047B704700BFD401002000000020D1
:1010C000F0B593B002AF05F0BBF905F06FF905F08C
:1010D0007AF907F10803184601F0E2FE07233B7294
:1010E00007F108031946654801F060FE644B1B6870
:1010F0001D464FEAE576022000F064FC03464FF0FF
:10110000000403FB06F105FB04F20A44A5FB0301FE
:10111000531819464FF4FA324FF0000305F0D1FB93
:1011200003460C461946554804F05AFA4FF400712C
:10113000524804F04BFD534800F0BEFE07F1240373
:10114000184600F0EFFF07F1240319464E4800F05F
:10115000A9FF07F12803184602F0FAFB4FF4E13328
:10116000BB62012387F83330012387F83430022033
:1011700000F028FC024607F128031946434802F014
:101180007BFA434802F090FE424801F0ABFF414B2E
:10119000414A5A60022000F015FC03461A463D49B8
:1011A0003E4801F031FF2C2200213D4805F05FF957
:1011B000182200213B4805F05AF93A4B28221A71AF
:1011C000384B01225A71374B00229A60354B00226E
:1011D0001A73344B344A1A61324B02225A61314B32
:1011E00000221A604FF4897200212648FFF7B4FEEE
:1011F000002225492D4801F0A3F800212148FFF7DE
:101200008DFE2A4B00930023294A2549234802F0EA
:1012100013F92A2004F0A2F90121184804F0EEF98C
:10122000244A2549194800F0F7F9F863234B1B6855
:10123000234AA2FB03239B091846FFF74DFE0346F2
:10124000002B00D0FEE7FB1D012219460F4802F0DB
:10125000AFFBB863BB6B002B06D1FB1D0122194607
:10126000F86B04F0EEFBEEE7084804F0D4FF034609
:101270001946064804F0F2FFE5E700BF008003408E
:1012800000000020001002400080004000D0064016
:10129000586D00005C000020A08601000060064040
:1012A0001800002068000020D60100204400002023
:1012B000A50F00003756000071100000100000203C
:1012C000D34D621080B586B000AFF860B9607A6027
:1012D000FB68D3F888217B681344802B0DDDF96807
:1012E0001D4802F0E1FDFB68D3F8A4315A1CFB68ED
:1012F000C3F8A4214FF0FF332AE0BB687B61FB6891
:101300008833FA68D2F8882113447A6819467869D4
:1013100004F0F0F93861FB68D3F888213B691A447E
:10132000FB68C3F88821FB68D3F8A8315A1CFB6816
:10133000C3F8A821FB68D3F8AC217B681A44FB688A
:10134000C3F8AC21F86804F01DFAFB68D3F88831C3
:1013500018461837BD4680BD686D000080B582B064
:1013600000AF78600B46FB70FB78C03B1D2B78D834
:1013700001A252F823F000BFF11300006314000033
:101380006314000063140000631400006314000081
:101390006314000063140000631400006314000071
:1013A0006314000063140000631400006314000061
:1013B0006314000063140000631400006314000051
:1013C0006314000063140000631400006314000041
:1013D0006314000063140000631400006314000031
:1013E00063140000251400004714000031140000AD
:1013F0007B681946022004F06AF90346002B07D1E6
:101400007B68D3F88430022B02DD786804F0FBF9A6
:101410007B681946012004F01FF97B680022C3F89D
:10142000842043E07B681946012004F02AF93DE05E
:101430007B681946012004F04AF90346002B0DD0C1
:10144000DB23FB700AE07B681946012004F03FF9BA
:101450000346002B04D0C023FB7001E000BF00E076
:1014600000BF7B681946022004F01FF90346002BD9
:101470001CD17B68D3F884307F2B0BDC7B68D3F8DE
:101480008430591C7A68C2F884107A681344FA7858
:101490001A710BE07B68D3F898315A1C7B68C3F84B
:1014A00098217B681946022004F0EBF80837BD4606
:1014B00080BD00BF80B586B000AFF860B9607A60CB
:1014C0004FF4D871012005F0D5F878617B69002BC5
:1014D00006D10C4A0C490D4802F0CEFC00230CE06A
:1014E0007B69FA68C3F894217B69BA68C3F88C21D8
:1014F0007B697A68C3F890217B6918461837BD4626
:1015000080BD00BF4C6E0000946D00008C01002077
:1015100090B58BB002AFF860B9607A60FB68FB6190
:10152000BB68BB617B6803F00103002B05D07B68BF
:10153000334A3449344802F09FFC7B68DA0F134485
:101540005B107B607B68022B04DC2D4A2F492E4800
:1015500002F092FCBB691B881B0A9BB2DBB27B6169
:10156000BB691B88DBB23B613B69822B0DD0832BAF
:1015700025D0812B00D03FE0BB6902331B887A69FC
:101580001946F86904F0EDF936E07B68033B7A69A7
:101590009A4205DD1A4A1E491B4802F06DFC2BE0F9
:1015A000FB695C68FB69D868BB6902331A88BB6950
:1015B000191D7B6900930B460321A0471CE07B6843
:1015C000033B7A699A4208DD7B6800937B690C4A89
:1015D00010490D4802F050FC0EE0FB695C68FB69A5
:1015E000D868BB6902331A88BB69191D7B690093EF
:1015F0000B460121A04700BF00BF2437BD4690BD68
:101600000C6F0000586E00008C010020746E00000A
:101610008C6E0000AC6E000080B586B000AFF86044
:10162000B9607A601021012005F024F878617B69A7
:10163000002B06D1154A1649164802F01DFC00235E
:101640001FE07B69FA68DA607B69BA685A607B6977
:101650007A689A60104A11497869FFF72BFF0246B1
:101660007B691A607B691B68002B09D1074A0C490A
:10167000084802F001FC786904F0E4FF002300E070
:101680007B6918461837BD4680BD00BF146F000047
:10169000DC6E00008C01002039590000111500009B
:1016A000F06E000080B483B000AF7860084B1B6818
:1016B00023F440227B689B0403F440230449134332
:1016C0000B6000BF0C37BD465DF8047B704700BF60
:1016D0000070044080B483B000AF78600B4B03F51A
:1016E000805304331B6823F440327B681B0403F4EB
:1016F000403306491A4301F5805304331A6000BF92
:101700000C37BD465DF8047B704700BF0070044095
:1017100080B582B000AF164B1B7BDBB203F0030336
:10172000012B0FD0012B02D3022B16D018E0114B46
:101730001B68002B02D1104802F0CEFA0D4B1B683B
:101740007B6010E00D4B1B68002B02D10C4802F0AF
:10175000C3FA0A4B1B687B6005E00A4B7B6002E022
:1017600000237B6000BF7B6818460837BD4680BDFC
:101770000040064084000020206F00008800002008
:101780004C6F0000006CDC0280B582B000AFFFF748
:10179000BFFF78607B68002B01D17B6851E02B4B49
:1017A0001B78DBB2DB08DBB203F00703FB70FB78CE
:1017B0007A6822FA03F37B60244B5B78DBB21B0967
:1017C000DBB203F00303BB70204B1B7BDBB203F0E7
:1017D00003037B70BB78002B02D07B78002B02D0F8
:1017E0007B78022B2BD1FB78072B25D801A252F84E
:1017F00023F000BF15180000151800001518000090
:101800001518000015180000151800001D1800001C
:101810002B1800007B685B097B6011E07B680C4A39
:10182000A2FB03231B097B600AE07B68094AA2FB39
:101830000323DB087B6003E000237B6000E000BF44
:101840007B6818460837BD4680BD00BF0040064093
:10185000CDCCCCCCABAAAAAA80B400AF0C4B9B7960
:10186000DBB203F00103002B02D10A4B1B6809E035
:10187000094B1A68064B1B7ADBB25B0803F00703BF
:1018800022FA03F31846BD465DF8047B704700BF9B
:1018900000400640080000200C00002080B500AF8A
:1018A000074B9B79DBB203F01003002B03D1FFF74A
:1018B0006BFF034601E0034B1B68184680BD00BF69
:1018C000004006400800002080B500AF094B1B789F
:1018D000DBB25BB2002B09DA074B1B68002B02D18D
:1018E000064802F0F9F9044B1B6800E00023184693
:1018F00080BD00BF0050064084000020786F0000CB
:1019000080B582B000AF174B1B689B0C03F003033C
:10191000022B0FD0032B18D0002B1AD1FFF7D4FFC6
:101920000346B3F5004F02D14FF4004300E000231B
:101930007B6011E00C4B1B68002B02D10B4802F0BE
:10194000CBF9094B1B687B6006E04FF47A737B6030
:1019500002E000237B6000BF7B6818460837BD4665
:1019600080BD00BF0070044088000020A46F00000C
:1019700080B582B000AF114B03F5805304331B6870
:101980001B0C03F00303012B08D0012B02D3032B04
:1019900008D00AE000F008F9786009E000F054F996
:1019A000786005E0064B7B6002E000237B6000BFAF
:1019B0007B6818460837BD4680BD00BF00700440F4
:1019C000006CDC0280B584B000AF0346FB71FB798C
:1019D000132B00F28E8001A252F823F02D1A000082
:1019E0002D1A00004D1A00006D1A00008D1A00001B
:1019F000F31A0000AD1A0000B51A0000BD1A00006D
:101A0000F31A0000F31A0000C51A0000CD1A0000F6
:101A1000D51A0000DD1A0000F31A0000F31A0000C6
:101A2000F31A0000E51A0000EB1A000000F08AF833
:101A30000246344B03F5825304331B681B0F03F03B
:101A40000F030133B2FBF3F3FB6055E000F07AF8CB
:101A500002462C4B03F5825304331B681B0E03F024
:101A60000F030133B2FBF3F3FB6045E000F06AF8CB
:101A70000246244B03F5825304331B681B0D03F00D
:101A80000F030133B2FBF3F3FB6035E000F05AF8CB
:101A900002461C4B03F5825304331B681B0C03F0F6
:101AA0000F030133B2FBF3F3FB6025E0FFF760FFA8
:101AB000F86021E0FFF724FFF8601DE0FFF704FF66
:101AC000F86019E003F0D5FFF86015E000F0AAF81F
:101AD000F86011E000F068F8F8600DE000F0B4F88C
:101AE000F86009E0084BFB6006E04FF47A73FB6096
:101AF00002E00023FB6000BFFB6818461037BD46BC
:101B000080BD00BF00700440006CDC0280B582B074
:101B100000AF78600A497B685A6801F58253043344
:101B20001A607B681B781846FFF7D4FD7B685B78EA
:101B30001846FFF7B7FD00BF0837BD4680BD00BFA0
:101B40000070044080B582B000AF164B9B79DBB2C9
:101B50009B0803F003033B603B68032B1AD801A2E8
:101B600052F823F07D1B0000851B00008D1B000038
:101B7000751B000000F068F878600EE000F014F8C3
:101B800078600AE0FFF768FE786006E0FFF7C0FDC6
:101B9000786002E000237B6000BF7B68184608374E
:101BA000BD4680BD0040064080B582B000AF1B4BF3
:101BB0005B78DBB203F00203002B06D1174B9B7955
:101BC000DBB203F02003002B01D0002322E0FFF75B
:101BD00065FE78607B68002B01D17B681AE00F4BB3
:101BE000DB78DBB25B09DBB203F00303FB700B4B6A
:101BF000DB78DBB2DB09DBB203F00103BB70FA7800
:101C0000BB7807495200134431F813301A467B68F9
:101C100003FB02F318460837BD4680BD004006406E
:101C20006C70000080B500AF064B1B78DBB203F090
:101C30000203002B01D1002302E0FFF70DFE034653
:101C4000184680BD0040064080B582B000AF164BFC
:101C50009B79DBB203F04003002B01D100231EE08F
:101C600003F000FF78607B68002B02D10F4802F080
:101C700033F80D4B1B79DBB203F01F0301337A6895
:101C8000B2FBF3F37B60084B5B79DBB203F01F031D
:101C900003F118027B6802FB03F37B607B68184644
:101CA0000837BD4680BD00BF00400640D06F000031
:101CB00080B485B000AF0346FB710B46BB71134681
:101CC0007B713B4B9B79DBB29B0803F00303FB600A
:101CD000374B9B79DBB203F00103FB72344B1B7A69
:101CE000DBB25B08DBB203F00703BB727A79BB7A25
:101CF0009A422CD0FB7A012B19D1FB68012B06D01C
:101D00002B4B1B78DBB203F00203002B0FD0284BC8
:101D10005B78DBB2264A23F00103DBB2537000BFCD
:101D2000234B9B79DBB203F00103002BF8D1204B4E
:101D30001B7ADBB223F02F03DAB27B795B00DBB2D4
:101D400003F00E03DBB21A491343DBB20B72184BDC
:101D50005B78DBB223F00103DAB2BB7903F0010355
:101D6000DBB213491343DBB24B70114B1B78DBB270
:101D700023F00303DAB20E49FB791343DBB20B7095
:101D8000FB68012B04D0FB7903F00203002B08D081
:101D900000BF074B9B79DBB203F00102BB799A428B
:101DA000F7D1002318461437BD465DF8047B704711
:101DB0000040064080B584B000AF03463A60FB7136
:101DC0000B46BB710023FB73294BDB78BB73284B9D
:101DD0009B79DBB203F01003002B09D10123FB73C5
:101DE000234BDB78DBB2224A83F02003DBB2D370D3
:101DF0001F4B1B78DBB203F03B03DBB21C4A43F002
:101E00000403DBB2137000BF194B9B79DBB21B09D3
:101E100003F00103012BF7D1FB7B002B02D0144A06
:101E2000BB7BD370BB7B03F01F03DAB2FB79DB0112
:101E3000D9B2BB795B01DBB203F06003DBB20B43C9
:101E4000DBB20B491343DBB2CB7000BF084B9B796D
:101E5000DBB29B0803F00303002BF7D13B68002B98
:101E600001D03B689847002318461037BD4680BD17
:101E70000040064080B584B000AF78600023FB606E
:101E800006E00B4A7B68934206D0FB680133FB6097
:101E9000FB68002BF5D000E000BFFB68002B02D0F0
:101EA000044801F019FFFB6818461037BD4680BD95
:101EB000001002407C70000080B582B000AF7860F6
:101EC0007868FFF7D7FF044B184603F0FCFD00BF0E
:101ED0000837BD4680BD00BF01003C1080B483B010
:101EE00000AF0346FB7197F90730002B0BDBFB7942
:101EF00003F01F02074997F907305B09012000FA38
:101F000002F241F8232000BF0C37BD465DF8047B88
:101F1000704700BF00E100E080B584B000AF78609A
:101F20000023FB6006E00B4A7B68934206D0FB6807
:101F30000133FB60FB68002BF5D000E000BFFB68BD
:101F4000002B02D0044801F0C7FEFB68184610378A
:101F5000BD4680BD00800040D070000080B584B0D8
:101F600000AFF860B9607A60BB680F2B02D94A48AD
:101F700001F0B2FE7B68002B02D1484801F0ACFEB4
:101F80007B6803F01F03002B02D0454801F0A4FE3C
:101F90007B681A68F968BB6880335B010B441A6080
:101FA0007B689B8899B2FA68BB6880335B011344F5
:101FB00004330A461A807B68DB8899B2FA68BB68EA
:101FC00080335B01134406330A461A807B689A68A3
:101FD000F968BB685B010B4403F5805308331A6052
:101FE0007B68DA68F968BB685B010B4403F58053D2
:101FF0000C331A607B681A69F968BB685B010B4493
:1020000003F5805310331A607B689B8A99B2FA6893
:10201000BB685B01134403F5805314330A461A80EE
:102020007B68DB8A99B2FA68BB685B01134403F5ED
:10203000805316330A461A807B689A69F968BB6830
:102040005B010B4403F5805318331A60FA68BB68D0
:102050005B01134403F580531C3300221A807B6814
:102060009B8B99B2FA68BB685B01134403F58053FC
:102070001C330A461A807B68DB8B99B2FA68BB680E
:102080005B01134403F580531E330A461A8000BFD8
:102090001037BD4680BD00BF1071000058710000B0
:1020A0008071000080B584B000AF786039603B6813
:1020B000002B02D1194801F00FFE7868FFF72CFFC2
:1020C000174B184603F019FD7B681B68FB60FB6823
:1020D00023F05603FB603B689B789B0003F00402EF
:1020E0003B685B781B0103F010031A433B681B78C5
:1020F0009B0103F040031A433B68DB785B0003F06D
:1021000002031A43FB68134343F08003FB607B68C0
:10211000FA681A6000BF1037BD4680BDBC71000070
:102120000100401080B582B000AF78607B68002B62
:1021300002D1094801F0D0FD7B6800229A707B68CB
:1021400001225A707B6800221A707B680022DA70C4
:1021500000BF0837BD4680BDE871000080B584B07F
:1021600000AFF860B9607A603B60BB680F2B02D9A2
:102170000F4801F0B1FD7B68002B02D10D4801F042
:10218000ABFD3B6803F01F03002B02D00A4801F0AF
:10219000A3FDBB6880335B01FA6813443A68796831
:1021A000184600F047F800BF1037BD4680BD00BF9D
:1021B0005C720000A4720000D072000080B582B092
:1021C00000AF78607B68002B02D1184801F084FDD5
:1021D0007B6803F01F03002B02D0154801F07CFD43
:1021E0007B6800221A607B6800229A807B6800224C
:1021F000DA807B6800229A607B680022DA607B6864
:1022000000221A617B6800229A827B680022DA82AF
:102210007B6800229A617B6808229A837B6800228F
:10222000DA8300BF0837BD4680BD00BF38750000A7
:102230006075000080B584B000AFF860B9607A6066
:10224000FB68002B02D1314801F046FDFB6803F02A
:102250001F03002B02D02E4801F03EFDBB68002B6F
:1022600002D12C4801F038FD7B6803F01F03002BDE
:1022700002D0294801F030FDBB681A68FB681A607B
:10228000BB685A68FB681A61BB681B7A9BB21B0269
:102290009BB203F4E0639AB2BB685B7A9BB203F033
:1022A00007039BB213439AB2FB68DA80BB68B3F9A9
:1022B0000A309AB2FB689A80BB68B3F90C309AB2C4
:1022C000FB689A82BB681A69FB689A60BB685B69A5
:1022D0009AB2FB68DA82BB685B699AB2FB68DA8300
:1022E0007B68002B0DD07A68FB689A61FB689B8B3A
:1022F0009BB243F010039BB223F008039AB2FB6831
:102300009A8300BF1037BD4680BD00BF9C7500009A
:10231000C4750000007600002C76000080B500AF88
:102320000548FFF7F9FD0346DAB2044B1A70034B78
:102330001B78184680BD00BF00800040D8010020F7
:1023400080B588B000AFF860B9607A60FB68002B98
:1023500002D1304801F0C0FC7B680F2B02D92E4817
:1023600001F0BAFC18220021F86804F080F8FB683C
:10237000BA689A607B68DAB2FB681A74B868FFF7CB
:10238000CBFDF861FFF7CAFF0346FB76FB7EFA69D7
:10239000D31A1B017A6813447B6120497B69FA6870
:1023A00041F823201E4AFB691B011A447B68134431
:1023B00093F90030184603F0BAFBFB689A68FB6893
:1023C0001B7C80335B0113443B613B6900221A6034
:1023D0003B6900229A803B690022DA803B69002237
:1023E0009A603B690022DA603B6900221A613B690E
:1023F00000229A823B690022DA823B6900229A61BC
:102400003B6900229A833B690022DA8300BF2037B0
:10241000BD4680BD0C790000387900008C0000209A
:10242000C070000080B584B000AFF860B9607A6019
:10243000FB68002B02D1064801F04EFCFB68BA682D
:102440001A60FB687A685A6000BF1037BD4680BDCD
:10245000EC79000080B588B000AF786039607B68A7
:10246000002B02D19A4801F037FC3B68002B02D1C7
:10247000984801F031FC7B689A687B681B7C80334C
:102480005B011344BB617B68DB68002B4DD1BB69EA
:102490009B8B9BB2002B09D0BB699B8B9BB203F03B
:1024A0008003002B02D141F2ED3331E17B68986863
:1024B0007B681B7C194600233A68FFF74FFE7B6858
:1024C0009A687B681B7C5B01134403F580531C33C3
:1024D0001B889BB27A6892687968097C084643F049
:1024E000080399B24301134403F580531C330A4691
:1024F0001A807B689A687B681B7C5B01134403F538
:1025000080531C331B889BB27A6892687968097C77
:10251000084643F0020399B24301134403F5805384
:102520001C330A461A800023F2E003F016FB7861A0
:102530007B68DB7C5AB27B681B7D5BB29A4205DB11
:10254000786903F01AFB41F2EC33E1E07B689B7C95
:10255000FB747B68DB7C5BB2DBB20133DBB25AB26B
:102560007B68DA74FB7C0133DBB2FB777B681B7D15
:102570005BB297F91F209A4201D10023FB777B6859
:10258000FA7F9A74786903F0F8FA97F91330002B00
:1025900004D0FB7C013BDBB25BB206E07B681B7DB9
:1025A0005BB2DBB2013BDBB25BB2BB747B68DA6867
:1025B00097F913305B0113441846FFF7FFFD7B6862
:1025C000DA6897F913305B01134400223968184622
:1025D000FFF730FE7B68DA6897F913305B0113442C
:1025E0009B8B9AB27B68D96897F913305B010B44D7
:1025F00042F0020292B29A837B68DA6897F91F3040
:102600005B01D1187B68DA6897F913305B011344DA
:102610000A469A6197F9132097F912309A425BD0D3
:102620007B68DA6897F912305B0113449B8B9BB28D
:1026300043F010039BB223F00803FB607B68DA6869
:1026400097F912305B011344FA6892B29A83BB691E
:102650009B697A68D16897F9132052010A44934222
:102660002FD1BB699B8B9BB243F008039AB2BB6925
:102670009A83BB699B8B9BB243F010039BB2FB60B8
:10268000FB689AB2BB699A83BB699B8B9BB203F0D0
:102690001003002B09D0BB699B8B9BB223F008036E
:1026A0009AB2BB699A83002332E0BB699B697A685E
:1026B000D16897F91F2052010A4493420CD100239C
:1026C00026E0BB699B69002B06D0002320E000BFF9
:1026D000E87B0000147C00007B6898687B681B7CAA
:1026E00019467B68DA6897F913305B0113441A4680
:1026F000FFF734FC7B685B7D5BB2002B07DA7B68FD
:102700001A7C7B689B6802F00F02D2B2DA76002353
:1027100018462037BD4680BD80B584B000AF7860D4
:102720007B68002B02D1264801F0D6FA7B68DB6873
:10273000002B08D17B681A7C7B689B6802F00F0233
:10274000D2B2DA7638E07B689A687B681B7C80338B
:102750005B011344FB607B685B7D63F07F03DAB24F
:102760007B685A75FB689B69002B25D003F0F5F94F
:10277000B8607B689B68DB687A68127CD34003F0A2
:102780000103002B15D1FB689B8B9BB203F08003E8
:10279000002B06D0FB689B8B9BB203F01003002B31
:1027A00007D07B681A7C7B689B6802F00F02D2B26C
:1027B000DA76B86803F0E1F900BF1037BD4680BD96
:1027C000407C000090B589B000AF78607B68002B3A
:1027D00002D14C4801F080FA7B689B687A68127CD1
:1027E000DA777B68DB68002B0CD17B681B68002BD9
:1027F00008D07B681C687B685968002301227868D0
:10280000A0477BE07B689A687B681B7C5B01134474
:1028100003F5805318331B687B617B689A687B687B
:102820001B7C5B01134403F580531C331B889BB254
:1028300003F08003002B14BF01230023FB747B688B
:10284000DB681A467B699B1A7B617B695B09FB60CD
:10285000FB7C002B02D0FB68FB760EE0FB68002BB4
:1028600004D0FB68DBB2013BDBB205E07B681B7D7B
:102870005BB2DBB2013BDBB2FB76FB7E7A68527C5B
:1028800052B293420FD17B68DB7C5AB27B681B7DCE
:102890005BB29A4204D17B68DB7C5BB2FB6112E0E5
:1028A0000023FB610FE0FB7E7A68527C52B29B1AD8
:1028B000FB61FB69002B06DA7B681B7D5BB21A4665
:1028C000FB691344FB6197F91B207B685A747B6892
:1028D000DB7C5BB2DAB2FB69DBB2D31ADBB25AB291
:1028E0007B68DA747B681B68002B07D07B681C68E8
:1028F0007B685968FB69FA7C7868A04700BF243779
:10290000BD4690BD987C000080B500AF044B1B68AD
:102910001846FFF757FFBFF34F8F00BF80BD00BFC2
:102920008C00002080B500AF044B5B681846FFF7B1
:1029300049FFBFF34F8F00BF80BD00BF8C00002058
:1029400080B500AF044B9B681846FFF73BFFBFF311
:102950004F8F00BF80BD00BF8C00002080B500AF4E
:10296000044BDB681846FFF72DFFBFF34F8F00BF06
:1029700080BD00BF8C00002080B500AF044B1B69F8
:102980001846FFF71FFFBFF34F8F00BF80BD00BF8A
:102990008C00002080B500AF044B5B691846FFF740
:1029A00011FFBFF34F8F00BF80BD00BF8C00002020
:1029B00080B500AF044B9B691846FFF703FFBFF3D8
:1029C0004F8F00BF80BD00BF8C00002080B500AFDE
:1029D000044BDB691846FFF7F5FEBFF34F8F00BFCE
:1029E00080BD00BF8C00002080B500AF044B1B6A87
:1029F0001846FFF7E7FEBFF34F8F00BF80BD00BF53
:102A00008C00002080B500AF044B5B6A1846FFF7CE
:102A1000D9FEBFF34F8F00BF80BD00BF8C000020E8
:102A200080B500AF044B9B6A1846FFF7CBFEBFF39F
:102A30004F8F00BF80BD00BF8C00002080B500AF6D
:102A4000044BDB6A1846FFF7BDFEBFF34F8F00BF94
:102A500080BD00BF8C00002080B500AF044B1B6B15
:102A60001846FFF7AFFEBFF34F8F00BF80BD00BF1A
:102A70008C00002080B500AF044B5B6B1846FFF75D
:102A8000A1FEBFF34F8F00BF80BD00BF8C000020B0
:102A900080B500AF044B9B6B1846FFF793FEBFF366
:102AA0004F8F00BF80BD00BF8C00002080B500AFFD
:102AB000044BDB6B1846FFF785FEBFF34F8F00BF5B
:102AC00080BD00BF8C00002080B584B000AF78606E
:102AD0000423BB600023FB6009E00E4AFB6852F848
:102AE00023307A689A4207D0FB680133FB60FA68AA
:102AF000BB689A42F1D300E000BFFA68BB689A4213
:102B000002D3054801F0E8F8FB6818461037BD46C7
:102B100080BD00BFC47C0000E47C000080B487B0AE
:102B200000AF786039600023FB7500233B61002310
:102B3000FB607B689B6DFB60FB6843F00803FB60F8
:102B40007B685B6E3B610023FB750BE0FB7DDB006C
:102B50000533012202FA03F33A6913433B61FB7D1B
:102B60000133FB75FA7D7B682F498B4213D07B685C
:102B70002E498B420DD07B682D498B4207D07B6854
:102B80002C498B4201D1042306E0002304E00123F9
:102B900002E0012300E004239342D7DC7B683A691A
:102BA0005A667B68D3F88C303B613B6943F0B403D1
:102BB0003B613B6803F08003002B03D03B6943F487
:102BC000F8533B613B6803F07003002B1ED03B6958
:102BD00043F4F8133B613B6803F01003002B03D070
:102BE000FB6843F01003FB603B6803F02003002BFD
:102BF00003D0FB6843F02003FB603B6803F0400315
:102C0000002B03D0FB6843F04003FB607B68FA684D
:102C10009A657B683A69C3F88C2000BF1C37BD46B3
:102C20005DF8047B704700BF0080034000900340C4
:102C300000A0034000900B4080B485B000AF7860E6
:102C400039600023FB600023BB607B68D3F88C30C5
:102C500043F004027B68C3F88C207B685B6EBB602A
:102C60000023FB600BE0FB68DB000533012202FA66
:102C700003F3BA681343BB60FB680133FB607B68F6
:102C8000464A934213D07B68454A93420DD07B68F5
:102C9000444A934207D07B68434A934201D10423BC
:102CA00006E0002304E0012302E0012300E0042306
:102CB000FA689342D7D87B68BA685A667B68D3F8BB
:102CC0009830BB607B68354A934216D07B68344AA3
:102CD00093420FD07B68334A934208D07B68324AD4
:102CE000934202D16FF0FF0309E0002307E06FF089
:102CF000030304E06FF0030301E06FF0FF03BA6821
:102D00001340BB607B68254A934214D07B68244AF9
:102D100093420ED07B68234A934208D07B68224AB4
:102D2000934201D1FF2307E04FF0FF3304E0032378
:102D300002E0032300E0FF233A681340BA6813431C
:102D4000BB607B68BA68C3F898207B689B6DBB60EA
:102D50003B6803F48073002B04D0BB6843F002038C
:102D6000BB6003E0BB6823F00203BB603B6803F475
:102D70000073002B04D0BB6843F00103BB6003E089
:102D8000BB6823F00103BB607B68BA689A6500BF2B
:102D90001437BD465DF8047B704700BF00800340D8
:102DA0000090034000A0034000900B4080B584B029
:102DB00000AF786039603B68002B02D1364800F0E4
:102DC0008BFF3B685B6803F0F003002B01D101230C
:102DD0005DE07868FFF778FE0246304B53F822300A
:102DE000184602F0D9FE3B681B7B5B0103F06003D1
:102DF00043F005027B685A653B685B681946786852
:102E0000FFF78CFE3B689B6819467868FFF714FF54
:102E10003B681B7803F007027B681A603B685B78AD
:102E20009B01DAB23B689B7E5B0203F400731A439A
:102E30007B68C3F884203B681B7E1A467B68DA6592
:102E40003B685B7E1A467B681A673B685A697B68F9
:102E5000DA663B689B7B9B01DAB23B681B6903F037
:102E60003F031A437B689A667B68DB6FFB60FB68F5
:102E700023F47063FB603B685B7B1B0203F47063AD
:102E8000FA681343FB607B68FA68DA670023184628
:102E90001037BD4680BD00BF187D0000D47C000007
:102EA00080B582B000AF78607B68002B02D11548F6
:102EB00000F012FF7B6800221A707B6800225A70B3
:102EC0007B6880225A607B6800229A607B680022BF
:102ED0001A737B6800225A737B6801229A737B689D
:102EE00000221A617B6800225A617B6800221A76F0
:102EF0007B6800225A767B6800229A7600BF0837EA
:102F0000BD4680BD3C7D000080B584B000AFF86058
:102F1000B9607A607B68002B02D1134800F0DCFEB8
:102F20007B681B78002B0AD1FB685A690121BB68BA
:102F300001FA03F3DB431A40FB685A610FE07B6838
:102F40005B781A46B968F86802F0D2FEFB685A69E5
:102F50000121BB6801FA03F31A43FB685A6100BF01
:102F60001037BD4680BD00BF0C7F000080B584B027
:102F700000AF78600023FB6009E00D4AFB6852F85F
:102F800023307A689A4206D0FB680133FB60FB6805
:102F9000022BF2D900E000BFFB68022B02D90548E2
:102FA00000F09AFEFB6818461037BD4680BD00BF92
:102FB000307F0000C87F000080B582B000AF78602D
:102FC00039607B68DB78DBB203F01003002B06D19D
:102FD0007B689B78DBB203F02003002B05D0084B05
:102FE0001B6839687868984704E0064B1B683968A5
:102FF00078689847BFF34F8F00BF0837BD4680BD44
:10300000D8000020DC00002080B586B000AFF8605A
:10301000B9607A60BB68002B02D07B68002B02D1BC
:103020002E4800F059FEF868FFF7A0FF02462C4B2F
:1030300053F82230184602F06CFEFB6800221A702A
:10304000FB6800225A70FB6800229A70FB68FF221E
:10305000DA70FB6800225A71FB6850229A71FB6893
:103060000022DA71FB689B78DBB203F07F03DAB2EF
:10307000FB689A7045F21201F86802F064FEBB68C2
:103080005B687A681946F86800F04AF8FB689B7933
:10309000FB75FB7D03F07F03FB75BB685B78DB0191
:1030A000DAB2FB7D1343FB75FB7D23F00F03FB7549
:1030B000BB681B7A03F00F03DAB2FB7D1343FB7589
:1030C000FB68FA7D9A71BB681B78DB01DAB2FB689A
:1030D0009A7000BF1837BD4680BD00BF0880000051
:1030E000BC7F000080B582B000AF78607B68002BA9
:1030F00002D1094800F0F0FD7B68084A5A607B68FD
:1031000000225A707B6800221A727B6801221A70B2
:1031100000BF0837BD4680BD40800000A08601008A
:1031200080B48DB000AFF860B9607A604FF0FF33C3
:10313000FB620023BB6200237B62002387F82330FD
:1031400041E097F82330012202FA03F3FB610023E8
:1031500087F822302CE097F82230284A32F81330D2
:103160001A46FB6903FB02F37A68B2FBF3F3BB6117
:10317000BA68BB699A4203D9BA68BB69D31A02E03C
:10318000BA69BB68D31A7B617A69FB6A9A420AD230
:1031900097F82330BB6297F822307B627B69FB6231
:1031A0007B69002B09D097F82230013387F8223051
:1031B00097F822303F2BCED900E000BF97F823309C
:1031C000013387F8233097F82330022B02D8FB6AAB
:1031D000002BB6D1BB6ADBB29B01DAB27B6ADBB2F1
:1031E00003F03F03DBB21343DAB2FB685A7000BF4F
:1031F0003437BD465DF8047B704700BF3C7F00005C
:1032000080B500AF034B1B6819460348FFF7D4FE97
:1032100000BF80BDCC0000200060064080B500AF3C
:10322000034B5B6819460348FFF7C6FE00BF80BD2D
:10323000CC0000200070064080B500AF034B9B68B7
:1032400019460348FFF7B8FE00BF80BDCC00002040
:1032500000600E40B0B586B000AFF860B9607A602B
:10326000BB68002B02D1724800F036FD7B68002B52
:1032700002D1704800F030FD00237B61BB685B7FAA
:10328000002B02D040F24C43CDE07B685B79FB74AD
:10329000BA687B6814461D460FCD0FC495E803003D
:1032A00084E803007B685A69BB689A61BB680122A5
:1032B0005A7745F21201F86802F032FE7B681B7BF8
:1032C000002B05D07B685B79012B01D10023FB74B7
:1032D000BB681B6803F00203002B08D0BB681B7996
:1032E000FA7C1946F86802F08CFD786107E0BB684B
:1032F0001B79FA7C1946F86802F052FD78617B6907
:10330000002B01D07B698EE000BFFB68DB78DBB26D
:1033100003F00203002BF8D0FB68DB78DBB2194620
:10332000F86802F0F0FE78617B69002B1ED07B69A3
:1033300040F24E42934217D140F251437B61F8680C
:1033400002F0ACFD0346002B02D04FF48A637B6190
:10335000BB685B6A002B07D0BB685C6ABB689B6A72
:103360007A69B968F868A0477B695CE0BB681B7B39
:10337000002B54D0FB680222DA70BB681B7B013B38
:10338000DAB2BB681A73BB689A68BB681B7BDB0048
:1033900022FA03F3DAB2FB681A7100BFFB68DB782C
:1033A000DBB203F00203002BF8D0FB68DB78DBB262
:1033B0001946F86802F0A7FE78617B69002B01D0FE
:1033C0007B6930E0BB681B7B002BD3D1BB685B798A
:1033D000012B24D1FB680222DA70BB681B79012221
:1033E0001946F86802F00DFD78617B69002B01D069
:1033F0007B6918E000BFFB68DB78DBB203F00203F7
:10340000002BF8D0FB68DB78DBB21946F86802F0D5
:103410007AFE78617B69002B01D07B6903E0FB6851
:103420000222DA707B6918461837BD46B0BD00BF6E
:10343000C4820000EC82000080B586B000AFF86066
:10344000B9607A603B60BB68002B02D1194800F07C
:1034500043FC3B6A002B02D1174800F03DFCF868A2
:10346000FFF784FD78612C220021B86802F0FFFF8D
:10347000BB687A685A62BB683A689A62BB683A6A03
:103480001A620E497B69FA6841F833200B4A7B695E
:10349000DB001344BA685A607B69DB00074A1344B7
:1034A0001A460749386AFEF7BDFF00BF1837BD4608
:1034B00080BD00BF148300003C830000E0000020BA
:1034C000D35F000080B586B000AFF860B9607A6065
:1034D000BB68002B02D1514800F0FEFB7B68002B3B
:1034E00002D14F4800F0F8FB0023BB74BB7CDBB279
:1034F0000133DBB2BB740021F86802F03EFD7A684C
:10350000B968F868FFF7A6FE78617B69002B12D0D6
:103510007B6940F24E42934208D1F86802F0BEFC4B
:103520000346002B02D04FF48A637B61BB68002204
:103530005A777B696EE0BB685B69012B22D9B96859
:10354000F86802F002FEBB685B79012B10D1FB68C2
:103550009B78DBB223F01803DAB2FB689A70FB6841
:103560001B79DBB2BB740121F86802F006FD50E064
:103570000121F86802F001FDBB681B691A78FB683D
:103580001A7146E0BB685B79012B12D1FB689B780E
:10359000FB74FB7C23F01003FB74FB7C43F00803FB
:1035A000FB74FB68FA7C9A70FB681B79DBB2BB7416
:1035B00004E0BB681B691A78FB681A7100BFFB68DE
:1035C000DB78DBB203F00203002BF8D0FB680222A9
:1035D000DA70BB681B6803F00403002B04D1F868A1
:1035E00002F05CFC786107E0FB689B78DBB243F09B
:1035F0001003DAB2FB689A70BB685B79012B05D1C6
:10360000BB681B69FA681279D2B21A70BB680022D3
:103610005A777B6918461837BD4680BD688300001D
:103620009083000080B584B000AF78600623BB6053
:103630000023FB6009E00E4AFB6852F823307A68E9
:103640009A4207D0FB680133FB60FA68BB689A4274
:10365000F1D300E000BFFA68BB689A4202D3054884
:1036600000F03AFBFB6818461037BD4680BD00BF2E
:10367000EC8300001C84000080B588B000AFF860C7
:10368000B9607A60BB68002B02D1A64800F024FB29
:10369000BB681B68002B02D1A34800F01DFBFB6830
:1036A000A24A93421AD0FB68A14A934214D0FB6805
:1036B000A04A93420ED0FB689F4A934208D0FB6811
:1036C0009E4A934201D1012309E04FF0FF3306E007
:1036D000012304E0012302E0082300E00823BA6884
:1036E0009279934202DA964800F0F6FAFB688F4A24
:1036F00093421AD0FB688E4A934214D0FB688D4ADD
:1037000093420ED0FB688C4A934208D0FB688B4AE8
:10371000934201D1012309E04FF0FF3306E001237A
:1037200004E0012302E0082300E00823BA68D2790C
:10373000934202DA834800F0CFFA0023FB83002390
:103740007B770023BB61BB681B681B017A68B2FBF7
:10375000F3F3FB83FB8B002B01D10123FB830023BD
:103760007B617B685A00BB681B68B2FBF3F39AB2BB
:10377000FB8B5B019BB2D31A7B827B685B00FA8B6D
:1037800051017A8A0A44B3FBF2F37B61BB681B6880
:103790007A699A4204D9BB681B687A69D31A03E034
:1037A000BB681A687B69D31ABB61BB681B68664A31
:1037B000A2FB03235A0913465B001344BA699A42D9
:1037C00002D940F2F533A9E0F868FFF72BFF024673
:1037D0005E4B53F82230184602F003FDFB68DB789D
:1037E000DBB223F00C03DAB2FB68DA70FB681B78FB
:1037F000DBB223F01F03DAB2FB8B1B0A9BB2DBB2F6
:103800001343DAB2FB681A70FB8BDAB2FB685A70AA
:10381000FB689B7ADBB223F01F03DAB27B8ADBB250
:1038200003F01F03DBB21343DAB2FB689A72FB6842
:103830009B78DBB223F017037B77BB689B7A9B00F6
:10384000DBB203F00403DAB27B7F13437B77BB6800
:103850001B79002B07D0BB681A797B7F1343DBB23F
:1038600043F010037B77FB687A7F9A70FB681B78C4
:10387000DBB223F02003DAB2BB685B795B01DBB219
:1038800003F02003DBB21343DAB2FB681A70BB68A3
:103890009A79FB68DA74BB68DA79FB685A75FB6859
:1038A0001B7CDBB263F07703DAB2FB681A74FB6847
:1038B0005B7CDBB263F03F03DAB2FB685A74BB682F
:1038C0001B7A002B07D0FB685B7BDBB243F008035D
:1038D000DAB2FB685A73BB685B7A002B07D0FB68CF
:1038E0005B7BDBB243F00103DAB2FB685A73FB681F
:1038F000DB787B77BB68DB7A002B03D07B7F43F0E0
:1039000008037B77BB681B7B002B03D07B7F43F0D6
:1039100004037B77FB687A7FDA7000231846203730
:10392000BD4680BD9C840000C084000000A006400D
:1039300000B0064000C0064000D0064000A00E4087
:10394000F4840000508500001F85EB5104840000C2
:1039500080B582B000AF78607B68002B02D113483D
:1039600000F0BAF97B684FF4E1321A607B680022FC
:103970001A717B6800225A717B6800229A717B68F9
:103980000122DA717B6800221A727B6800225A7267
:103990007B6800229A727B680022DA727B680022C0
:1039A0001A7300BF0837BD4680BD00BFAC8500005C
:1039B00080B586B000AFF860B9607A60BB68002B54
:1039C00032D11E4800F088F9F86802F024FC7861D2
:1039D0007B6903F00803002B02D040F2F13329E0A9
:1039E0007B6903F00403002B02D040F2F23321E0A4
:1039F0007B6903F00203002B02D040F2F33319E09D
:103A00007B6903F00103002B02D04FF47D7311E0BA
:103A1000FB689B7DDBB2002BD6D0BB685A1CBA601A
:103A2000FA68D279D2B21A707B685A1E7A60002B7B
:103A3000EED1002318461837BD4680BD2086000011
:103A400080B500AF054B1B68054A12681146054852
:103A50009847BFF34F8F00BF80BD00BF100100200B
:103A6000F800002000A0064080B500AF054B1B68A1
:103A7000054A5268114605489847BFF34F8F00BF6B
:103A800080BD00BF10010020F800002000B00640FB
:103A900080B500AF054B1B68054A92681146054882
:103AA0009847BFF34F8F00BF80BD00BF10010020BB
:103AB000F800002000C0064080B500AF054B1B6831
:103AC000054AD268114605489847BFF34F8F00BF9B
:103AD00080BD00BF10010020F800002000D006408B
:103AE00080B500AF054B1B68054A126911460548B1
:103AF0009847BFF34F8F00BF80BD00BF100100206B
:103B0000F800002000A00E4080B500AF054B1B68F8
:103B1000054A5269114605489847BFF34F8F00BFC9
:103B200080BD00BF10010020F800002000B00E4052
:103B300080B400AF054B03F5825304334FF092720B
:103B40001A6000BFBD465DF8047B704700700440FA
:103B500080B500AFFFF7ECFF0023002101221846DB
:103B6000FEF7A6F800230021064A184601F098FF48
:103B70000548FDF7CBFF054B4FF0A0721A6000BF60
:103B800080BD00BF87630000308900001000002066
:103B900080B582B000AF3B4802F01BFC3A4802F00F
:103BA00018FC01233B7100237B713B1D1A46002149
:103BB0003648FFF7A9F901233B7000237B703B4691
:103BC0001A460F213248FFF79FF9012200213148A0
:103BD00002F019FC2F4B1B6823F0807323F00103C4
:103BE0002C4A43F00103136002220221294802F00B
:103BF0000AFC284B9B6823F0807323F00303254ABB
:103C000043F00303936002220321224802F0FBFBEE
:103C1000204BDB6823F0807323F003031D4A43F03D
:103C20000303D36001220F211B4802F0ECFB1A4B67
:103C3000DB6B194A23F0807323F00103D363032263
:103C40001021154802F0DFFB134B1B6C23F080732F
:103C500023F00303104A43F00303136403221121EA
:103C60000D4802F0D0FB0C4B5B6C23F0807323F00B
:103C70000303094A43F00303536400BF0837BD46FA
:103C800080BD00BF0A0038100B00381040F00F4014
:103C900080F00F4000A0044000B0044080B500AFA9
:103CA0000B4BD3F888300A4A43F47003C2F88830CB
:103CB000084B4CF22052DA81064B4DF62812DA817D
:103CC000044B4FF4E9721A8002F0C0FB00BF80BDC4
:103CD00000ED00E00020054010B50F4904460F48F4
:103CE00002F02AFD0C49204602F026FD0C49D1F8CD
:103CF0008030013B002BC1F8803008DB8B6F5A1CF1
:103D00008A670A221A70BDE8104002F0ADBB783114
:103D10000A2002F0CEFBF6E78C0100203C8900006F
:103D2000140100202DE9F041D5685769EB02804667
:103D30000E46144605D5384602F0ABFF45F0100597
:103D4000A061124B2B408BB1A169384602F0AAFF4B
:103D5000002806DAE36843F08003E3604FF0FF30A9
:103D600011E025F4003525F01005E56032464146A6
:103D7000384602F09DFF20F00043F61AA3691E4466
:103D8000A6610028E6D1BDE8F08100BF1000020066
:103D9000F8B5304F3C68002851D10020F8BD2368A9
:103DA000B3F1805F39D1D4E9013151B10A68B2F180
:103DB000805F06D1DA1C4B681A448B686260A3608E
:103DC000F1E7AB4207DB9E4505DB20464FF0005391
:103DD00040F80C3BE2E7634511D920464FF0005212
:103DE000656040F80C2B5B1B00EB8502A260033B77
:103DF0004FF0805440F82540C2E90131CEE761B967
:103E0000A0EB830000F06AFF0130C6D04FF00053F2
:103E1000C4E9003504F10C00C0E72646A468002C74
:103E2000BDD10C3000F05AFF431CB6D04FF0005308
:103E3000C0E90035846056B938600C30AEE7C31C69
:103E40009D08002605F10A0C05F1030EE7E7B060B6
:103E5000F3E700BFCC01002010B5FFF799FF04463F
:103E600028B91722034902F023FF02F0FDFA204689
:103E700010BD00BF518900000EB43FB507AB094922
:103E800053F8042B0593CDE9013100926FF0004304
:103E90004FF0FF3200F036F906B05DF804EB03B0E6
:103EA000704700BF110400000FB47FB508AB09498B
:103EB00053F8042B0593CDE9013100926FF00043D4
:103EC0004FF0FF32044800F01DF907B05DF804EB35
:103ED00004B0704711040000500100200EB430B54A
:103EE00094B017AB054653F8044B04933C220021D1
:103EF00005A802F0BCFA0A2308936FF00043079369
:103F0000104B0293049B0595CDE900434FF0FF321F
:103F10006FF0004305A800F0F5F8079B013B002B6C
:103F20000446079308DB059B00221A70204614B054
:103F3000BDE8304003B0704705A9002002F0B9FA8F
:103F4000F4E700BF110400002DE9F843C6683D4BBB
:103F5000334004460D4690460BB9022747E0D0F89F
:103F60001490484602F098FE07460028F5D1B8F1B3
:103F7000010F2CD0B8F1020F2ED0B8F1000FECD108
:103F8000002DEADBB00404D52368E26A9A4238BF08
:103F9000E362A169A9420EDC2368E26A934238BF5A
:103FA000134622695818801AA84204DB206B01EBE3
:103FB000000CAC4536DC0023C4E9013346F0200692
:103FC000A56226F4032626F04006E6600FE02046B0
:103FD00000F03AF80544D3E7484602F05AFEB0F143
:103FE000000CE26806DA42F08002E26001273846FF
:103FF000BDE8F883E36A1846A3691946236883423B
:104000002CBFC91809180B4621699206A3EB0103BE
:1040100003D5A26A9342B8BF13466345ACBFED18FF
:104020006544ADE76D1AB10744BF281AA060F107D7
:1040300044BF9B1AEB1A154448BF6360256026F005
:104040002006BEE703001000C3689A0705D10E4B97
:1040500021221A604FF0FF30704703F020021B034B
:1040600009D512B1806A0138704703688269006916
:104070001344181AF7E70AB1806A70470368826927
:1040800000691344181A7047D001002010B5174A70
:104090001749002002F08BFB4FF480734FF48062CD
:1040A0000021124800F0FAFD124A1349012002F0E3
:1040B0007EFB4FF480734FF4806200210D4800F0C6
:1040C000EDFD0E4B1B68022B0EDD0D4A0A49022046
:1040D00002F06DFB4FF480734FF4806200210848BA
:1040E000BDE8104000F0DABD10BD00BF1401002093
:1040F0009B890000500100209D8900003889000044
:104100008C0100202DE9F04F9FB0CDE90A23DDE9B5
:104110002839002205460592187803F1010818B9DC
:1041200005981FB0BDE8F08F252819D0059BDDE963
:104130000A671946DA175C1CB1421346BB4108DA1C
:10414000AB68013B002BAB6006DB2B685A1C2A6076
:10415000187005944346DFE7294602F0AAF9F8E70C
:10416000002409E02D2F04D0302F0FD144F4007427
:1041700001E044F00104B046464616F8017B2B2FBF
:1041800012D0EFD8202F12D0232F13D02A2F14D0E3
:1041900000230A21A7F13002D0B209281BD801FB65
:1041A000032316F8017BF5E744F00204E3E744F04B
:1041B0000404E0E744F00804DDE7D9F8003098F89B
:1041C0000170002B09F10402BCBF5B4284F00104C2
:1041D00008F10206914623EAE3732E2F0D9334D1A2
:1041E00037782A2F0FD00023013606930A22A7F131
:1041F0003003D9B209290DD8069916F8017B02FBC4
:1042000001330693F3E7D9F800307778069309F184
:1042100004090236069B002B17DB44F010046C2FB8
:104220000AD137786C2F03BF777844F060040236E8
:10423000013618BF44F020044C2F01D0712F07D154
:10424000377844F0600401360FE000230693E6E778
:10425000682F1FD13778682F03BF777844F48074B4
:104260000236013618BF44F08004672F6DDC652FDD
:1042700080F2B482472F00F0B18216DC412F00F0AB
:10428000A782452F00F0AA82002F00F03881CDF8D8
:104290003090C4E06A2F03D144F040043778D2E76D
:1042A0007A2FFBD0742FE0D1F8E7612F00F09082D5
:1042B00020DC582FEBD1610640F1A78109F10709F5
:1042C00029F00709D9E900AB09F108030C9322068C
:1042D00040F1A4811FFA8AFA4FF0000BB54BB64AA1
:1042E00014F0080F18BF1A46E00601D524F4007434
:1042F000B24BCEE1632F00F08D80642FC7D16306EF
:1043000040F14E8209F1070929F00709D9E900AB0C
:1043100009F108030C93200640F14B820FFA8AFA48
:104320004FEAEA7BBAF1000F7BF1000380F247828B
:10433000DAF1000AA24A6BEB4B0B14F0100300F009
:10434000A88124F400740023A3E1702F00F097816A
:1043500006DC6E2F00F0DB8000F3D581692FCDE7FE
:10436000752F00F0F681782F00F05E81732F8ED1CB
:1043700009F104030C93D9F800A0924BBAF1000F95
:1043800008BF9A46504602F0EDF98346E00603D591
:10439000069B9B45A8BF9B460D9BA3EB0B0714F008
:1043A0000103069313D1059A14F4007F0CBF202358
:1043B000302390464FEAE2793C46013C40F1C5800B
:1043C000059A27EAE7731A44013F0592FF1A059BF5
:1043D000002498464FEAE379AAEB030A5C45C0F251
:1043E000CF80059BBBF1000FA8BF5B440593069BE4
:1043F000002B00F08780059B3C4698464FEAE37906
:104400004FF0200A013C40F1E680059B002FA8BF39
:10441000DB1939E009F10403D9F800700C930D9B06
:1044200014F0010903F1FF3849D1059B14F4007F12
:104430000CBF202430249A464FEAE37BB8F10108F0
:10444000524623D5DDE90A01531C059382424FEA07
:10445000E2738B4108DAAB68013B002BAB6030DBC9
:104460002B685A1C2A601F70B9F1000F4AD0059BB7
:1044700044469A464FEAE37B2027013C26D5059B1C
:10448000B8F1000FA8BF434405933BE0DDE90A23E0
:1044900092457BEB030308DAAB68013B002BAB6072
:1044A00008DB2B685A1C2A601C701AF1010A4BF1B8
:1044B000000BC3E72946204601F0FBFFF5E7059A0C
:1044C000C0E72946384601F0F4FFCDE7DDE90A23CD
:1044D00092457BEB030308DAAB68013B002BAB6032
:1044E00008DB2B685A1C2A601F701AF1010A4BF175
:1044F000000BC2E72946202001F0DBFFF5E7013E73
:10450000CDF83090DDF83090059CB04621E609F1F9
:1045100004030C936106D9F8003005D5059A1046BE
:10452000D117C3E90001EDE7A20602D5059A1A608A
:10453000E8E7E70503D59DF814201A70E2E72406A2
:10454000F4D5BDF814201A80DCE7DDE90A128845AD
:1045500079EB020208DAAA68013A002AAA6008DBAD
:104560002A68511C2960137018F1010849F10009EB
:1045700023E718462946089301F09BFF089BF3E7C1
:10458000DDE90A23904579EB03030BDAAB68013BC5
:10459000002BAB6018DB2B685A1C2A600AEB080260
:1045A00012781A7018F1010804F1010449F10009A8
:1045B00014E700BFA689000068890000AE890000EA
:1045C000998900009F8900000AEB080329461878A2
:1045D00001F06FFFE6E7DDE90A23904579EB03037D
:1045E00009DAAB68013B002BAB6009DB2B685A1C76
:1045F0002A6083F800A018F1010849F1000901E7D9
:104600002946202001F055FFF5E709F104030C933A
:10461000D9F800304FF0000B9A4658E6E3057FF5D5
:104620005DAE0AF0FF0A57E661061AD509F10709DF
:1046300029F00709D9E900AB09F108030C93220618
:1046400018D51FFA8AFA4FF0000B7F4B7F4A14F0FF
:10465000080F18BF1A46E00601D524F400747C4BFD
:1046600017E009F104030C93D9F800304FF0000B68
:104670009A46E4E7E305E8D50AF0FF0AE3E709F123
:1046800004030C93D9F800306F4A9A46704B4FF0F0
:10469000000BDDE90A890599B8EB010869EBE179BE
:1046A0000699CDE90889CDE910124FF0FF32CDE926
:1046B00012225521002216A881540132202AFAD153
:1046C00014F4826F04BF01221092672F00F3AA80B6
:1046D000652F08DA472F06D000F39A80412F02D0C9
:1046E000452F40F0A88013AB039312AB029310AB9D
:1046F000019311AB00933846234616AA14A92A9FAA
:10470000B8470690BEE0610615D509F1070929F002
:104710000709D9E900AB09F108030C93220613D568
:104720001FFA8AFA4FF0000B484A4A4B14F0080F60
:1047300018BF1A4601E609F104030C93D9F80030BA
:104740004FF0000B9A46E9E7E305EDD50AF0FF0AC2
:10475000E8E7600616D509F1070929F00709D9E944
:1047600000AB09F108030C93210614D51FFA8AFA4D
:104770004FF0000B14F0100302D024F40074002357
:10478000324A86E709F104030C93D9F800304FF060
:10479000000B9A46E8E7E205ECD50AF0FF0AE7E7E6
:1047A00009F104030C93D9F800309A464FEAE37BF1
:1047B000B1E5E1057FF5B6AD4FFA8AFAB0E5A2079B
:1047C00004D414F0040F214A234BB1E7234AB4E583
:1047D000E3065EBF0D2344F01004069314F0100F9F
:1047E00009F10709069B29F0070908BF062306936C
:1047F00009F108030C93D9E90023CDE91423002320
:1048000044F480644FF0000A4FF0000B1A4640E772
:10481000612F3FF468AF642F00F00B81582F0AD14D
:1048200000222BE0702FFBD008DC692F00F0018103
:104830006F2F00F09B800023069323E0752F00F07C
:10484000F880782FEBE700BFA98900006889000095
:10485000BF890000AC8900004F8900006989000011
:104860000AF00F0116A8595C81544FEA1A1141EA67
:104870000B714FEA1B108A46834601325AEA0B013C
:104880000692EDD114F480630E9300F0D6800023DD
:104890001093129B002BC4BF03F1FF331093139BA3
:1048A000002B03DD109A013B13441093069B109FCD
:1048B00011981F4401F056FF0D9BDF1B04F001030C
:1048C0000D9340F201231C42A7EB00074FF00008B4
:1048D00000F0DC80C2464FEAE87B119B5A1C119223
:1048E00093F80090B9F1000F40F0D7800D9B83B989
:1048F00014F4007F0CBF20233023C2464FEAE87B2C
:104900003C46013C40F1E58027EAE7737A1ED71A5E
:1049100098440E9B002B00F0F7803024069B4B45FB
:1049200000F307810D9B5BB1C2464FEAE87B3C4632
:104930004FF02009013C40F19781002FA8BFB844F7
:10494000059B4344A0E50AF0070216A93032CA5479
:104950004FEADA0242EA4B724FEADB0192468B469B
:1049600001335AEA0B020693EDD18BE70023F8E7F7
:104970004FEA9A025FEA5B014FEA3A0042EA8B7221
:1049800010EB02084FEA9B0341EB03094FEA1812B0
:1049900042EA097218EB02004FEA191349EB0301CE
:1049A0008946020A494642EA096280184FEA112301
:1049B00049EB03014FEA104848EA014818EB0002AE
:1049C0004FEA114949EB010312EB03084FF00001D4
:1049D00043EB01094FEAD80848EA49781AF1060280
:1049E000A8FB0C014FEAD9094BF100030CFB09119C
:1049F000121A63EB0103CDE90623069B1809079BF6
:104A000040EA037010EB08024FEA131141EB09036F
:104A10000AF1300A02EB8201AAEB410A16A99B4671
:104A200001F807A0013792465AEA0B0306979FD177
:104A300028E700274FF00A0CF6E7069A109B9B1A0E
:104A40000E9A48BF134630E7DDE90823904579EB1D
:104A5000030309DAAB68013B002BAB6011DB2B6869
:104A60005A1C2A6083F800B018F1010849F10009C6
:104A7000AAEB0803002BE7DA27EAE778AAEB080796
:104A800028E72946202001F014FDEDE74FF000094A
:104A900007F1FF3A4FF0200BEAE7DDE908239245E2
:104AA0007BEB030308F1010809DAAB68013B002B3B
:104AB000AB6009DB2B685A1C2A6083F800901AF15E
:104AC000010A4BF1000B08E72946484601F0F1FCCA
:104AD000F5E7DDE908128A457BEB020208DAAA68ED
:104AE000013A002AAA6008DB2A68511C2960137069
:104AF0001AF1010A4BF1000B03E7184629460F9300
:104B000001F0D7FC0F9BF3E7C2464FEAE87B302465
:104B1000109B013B002B10936DDA069CC2464FEAB6
:104B2000E87B002C00F38280069B002BA8BF9844F2
:104B3000F8E616ABC24613F809003C284FEAE87BBA
:104B400031D03E2841D1139B013B002B13932FDB27
:104B5000DDE9082392457BEB030308F1010808DA3D
:104B6000AB68013B002BAB602ADB2B685A1C2A6028
:104B70001C701AF1010A4BF1000BE4E7DDE9082390
:104B800092457BEB030308F1010808DAAB68013BAF
:104B9000002BAB600FDB2B685A1C2A601C701AF1CB
:104BA000010A4BF1000B129B013B002B1293E5DA3B
:104BB00009F10109B2E62946302001F07AFCEEE75E
:104BC0002946302001F075FCD3E7DDE90823924542
:104BD0007BEB030308F10108EADAAB68013B002B29
:104BE000AB6004DB2B685A1C2A601870E0E729468A
:104BF00001F05FFCDCE7DDE9082392457BEB030372
:104C000008F1010808DAAB68013B002BAB6008DB58
:104C10002B685A1C2A601C701AF1010A4BF1000B18
:104C200076E72946302001F044FCF5E7DDE908236A
:104C300092457BEB03030CDAAB6816AA013B2244D6
:104C4000002BAB6012F8010C0ADB2B685A1C2A609F
:104C500018701AF1010A04F1FF344BF1000B60E700
:104C6000294601F026FCF4E7DDE9082392457BEBB9
:104C7000030309DAAB68013B002BAB6009DB2B684F
:104C80005A1C2A6083F800901AF1010A4BF1000BBC
:104C900050E62946202001F00CFCF5E770B5C46809
:104CA000A5070CD0B2F5007F05D0B2F5806F08D013
:104CB000B2F5807F03D1084D5E1EAE4204D90120BB
:104CC00008E000F124010123144301610160C36184
:104CD000C460002070BD00BFFEFFFF0070B50B4D2B
:104CE0002B680BB90A4B2B60C41C2E6824F00304FC
:104CF0003444204600F032F810B92C60304670BDC4
:104D0000044B0C221A604FF0FF36F7E7C801002071
:104D1000E0010020D0010020F7B5044698B103B0AF
:104D2000BDE8F04001F0ADBD07FB046001F0A9FD56
:104D3000002818BF4FF0FF350134019BA342F3DC7C
:104D4000284603B0F0BD034B034E1B680193054694
:104D50003C27F2E73889000014010020044B23B1FE
:104D6000984234BF0020012070471846704700BFAA
:104D7000E01100202DE9F04F82461F461C46C1F38A
:104D80000A504B40164640F2FF7503F000430028DE
:104D90005FD0A8425DD0C7F30A52002A59D0AA4278
:104DA00057D0C1F3130141F480114FEA565EF60269
:104DB000A1FB06454EEAC72E2746B8464EF0004EE8
:104DC000A6FB0A672C460025EEFB014500EB020C12
:104DD00000213846EAFB0E0110EB080A4FF00009EB
:104DE00041EB090B14EB0B0845F10009B9F5801FE5
:104DF0004AEA960020D218EB08044FEAD07249EB39
:104E00000905ACF5806C44EA0208A9464000C20FCF
:104E100018EB020449F1000540F2FD71B0F1004FBA
:104E2000224608BF24F001028C4508D82B4303EB2F
:104E30000C511046BDE8F08FACF2FF3CE7E7BCF147
:104E4000000F03DB43F0FF4343F4E0030020194667
:104E5000F0E7490011F5001F12D2620012F5001FA1
:104E6000F4D3094A640094420BD811424FF0000079
:104E700008D0144206D043F0FF4141F4E001D9E7E5
:104E8000EFD000200149D5E70000E0FF0000F87FE7
:104E90002DE9704F8046C1F30A5089460C46924670
:104EA00040F2FF755940002859D0A84257D0C3F3AB
:104EB0000A52002A53D0AA4251D0821A4FEA5850BF
:104EC00040EAC92040F000454FEA5A5040EAC32367
:104ED00043F000494FEAC8244D454FEACA2808BFAD
:104EE00044452CD202F2FD305FEA59094FEA3808F6
:104EF000352200234D4508BF44454FEA430305D3FF
:104F0000B4EB080465EB090543F0010324196D4176
:104F1000212A08BF1E46013AECD14D4508BF444541
:104F200002D3013308BF013601F0004240F2FD71A7
:104F300088420AD802EB0052911918460DE06D081C
:104F40004FEA340402F2FE30CEE70028A4BF42F05C
:104F5000FF4242F4E00200201146BDE8708F184A7B
:104F60006000904202D85D00954202D900201549A8
:104F7000F3E7234312EA430301D11249DDE710EAC4
:104F8000020401F0004302D119462046E5E72A4019
:104F900005D143F0FF4141F4E0011046DDE715F58E
:104FA000001F05D043F0FF41002041F4E001D4E7A9
:104FB00010F5001F4FF00000D9D01946CDE700BF13
:104FC0000000E0FF0000F87F944693EA0102F0B58C
:104FD0000E4605469E4607D503F100452B46624620
:104FE000BDE8F04000F0CAB88B4203D8844509D32D
:104FF0008B4207D102F1004256408EEA020E2A4649
:1050000065469446370D27F4006240F2FF718A42EC
:10501000A7EB1E5400F0A580944200F09E80C6F3DA
:105020001302CEF313031F2C42F4801143F48013B8
:1050300051D823FA04F2891A2CFA04F2C4F120049C
:10504000A34013439D42A5EB03022CBF0023012381
:10505000154603B101391CFA04F303D05B42551E17
:1050600002B9013911F4C01F56D1EA0FDB0F42EA31
:10507000410243EA450352EA03046FD0BC1E510BC0
:1050800023D0510C01BF190F41EA02121B01043C4D
:10509000D10C01BF990F41EA82029B00023C110D25
:1050A00002BFD90F41EA420204F1FF344FEAD67140
:1050B00008BF5B00B1EBD42F4FF0000006BF02EB3E
:1050C0000451184606F00041F0BD190E41EA0222D3
:1050D0001B02083CD3E7352C1ED8203C23FA04F2EF
:1050E0009542A5EB02002CBF00220122054602B129
:1050F0000139C4F1200293402CFA04F45FEA0C62F7
:1051000043EA040306D043F0FF035B42451E18B98F
:10511000013901E0002BF8D1CA0209D4013F7A0518
:105120000FD0EA0F42EA4101DA0F42EA45055B007F
:10513000002B21F480124FEA075405DB1119284691
:10514000C2E739051046BFE7013508BF0132B3F1A8
:10515000004F08BF25F00105F0E75CB92146204665
:10516000B2E733034FF0000001D00349ACE70CB9BC
:105170000149F4E73146E2E70000F87F93EA010FC6
:10518000F0B49C460E46054605D503F100452B4676
:10519000F0BCFFF719BF8B4284BF1E468C464FEA16
:1051A000165188BF154640F2FF7488BF024621F4AD
:1051B0000060A0425ED0A1EB1C54844255D0C6F3DF
:1051C0001307CCF313031F2C47F4801743F4801309
:1051D00027D823FA04F0074422FA04F0C4F120048B
:1051E000A3400343ED1828BF013702FA04F3BA02C3
:1051F0002BD5013508BF01370BB925F00205360D57
:10520000360506EB5706730013F5001F37BFFF077F
:105210004B1C314647EA550024BF00201905F0BC5D
:105220007047352CE3D8203C23FA04F02D18C4F144
:10523000200003FA00F322FA04F428BF01372343C5
:10524000120618BF43F0FF03D1E7002B01F1FF3234
:1052500007DA013508BF0137B3F1004F08BF25F069
:10526000010507EB02512846D9E74CB906F0004189
:105270002046D4E733034FF0000001D00149CEE7C8
:105280003146F0E70000F87F08B5FDF73DFB08BDAB
:1052900008B5FDF747FB08BD08B5FDF751FB08BD94
:1052A00008B5FDF75BFB08BD08B5FDF765FB08BD5C
:1052B00008B5FDF76FFB08BD08B5FDF779FB08BD24
:1052C00008B5FDF783FB08BD08B5FDF78DFB08BDEC
:1052D00008B5FDF797FB08BD08B5FDF7A1FB08BDB4
:1052E00008B5FDF7ABFB08BD08B5FDF7B5FB08BD7C
:1052F00008B5FDF7BFFB08BD08B5FDF7C9FB08BD44
:1053000008B5FDF7D3FB08BD08B5FAF7AAFF08BD3D
:1053100008B5FAF7A6FF08BD08B5FAF7A2FF08BD61
:1053200008B5FAF79EFF08BD08B5FAF79AFF08BD61
:1053300008B5FAF796FF08BD08B5FAF792FF08BD61
:1053400008B5FAF78EFF08BD08B5FDF759FF08BD8F
:1053500008B5FDF763FF08BD08B5FAF782FF08BD81
:1053600008B5FAF77EFF08BD08B5FAF77AFF08BD61
:1053700008B5FAF776FF08BD08B5FAF772FF08BD61
:1053800008B500F0D0FF08BD08B5FAF76AFF08BD00
:1053900008B500F0D0FF08BD08B5FAF762FF08BDF8
:1053A00008B500F0D0FF08BD08B5FAF75AFF08BDF0
:1053B00008B500F0D0FF08BD08B5FAF752FF08BDE8
:1053C00008B5FAF74EFF08BD08B5FAF74AFF08BD61
:1053D00008B5FAF746FF08BD08B5FAF742FF08BD61
:1053E00008B5FAF73EFF08BD08B5FAF73AFF08BD61
:1053F00008B5FAF736FF08BD08B5FAF732FF08BD61
:1054000008B5FAF72EFF08BD08B5FAF72AFF08BD60
:1054100008B5FAF726FF08BD08B5FAF722FF08BD60
:1054200008B5FAF71EFF08BD08B5FAF71AFF08BD60
:1054300008B5FAF716FF08BD08B5FAF712FF08BD60
:1054400008B5FAF70EFF08BD08B5FAF70AFF08BD60
:1054500008B5FAF706FF08BD08B5FAF702FF08BD60
:1054600008B5FAF7FEFE08BD08B5FAF7FAFE08BD62
:1054700008B5FAF7F6FE08BD08B5FAF7F2FE08BD62
:1054800008B5FAF7EEFE08BD08B5FAF7EAFE08BD62
:1054900008B500F068FF08BD08B5FAF7E2FE08BDE0
:1054A00008B500F068FF08BD08B5FAF7DAFE08BDD8
:1054B00008B5FAF7D6FE08BD08B5FAF7D2FE08BD62
:1054C00008B5FAF7CEFE08BD08B5FAF7CAFE08BD62
:1054D00008B5FDF7B1FE08BD08B5FAF7C2FE08BD74
:1054E00008B5FAF7BEFE08BD08B5FAF7BAFE08BD62
:1054F00008B5FAF7B6FE08BD08B5FAF7B2FE08BD62
:1055000008B5FAF7AEFE08BD08B5FAF7AAFE08BD61
:1055100008B5FAF7A6FE08BD08B5FAF7A2FE08BD61
:1055200008B5FAF79EFE08BD08B5FAF79AFE08BD61
:1055300004207146084202D0EFF3098001E0EFF346
:10554000088081690A884BF6AB639A4200D0FEE777
:105550000231816120210160704700BF80B582B0B7
:1055600000AF0346FB7197F9073013F1800F01D1AB
:10557000012305E097F907301846FBF765FC002387
:1055800018460837BD4680BD80B485B000AFF860CE
:10559000B9601346FB71FB79002B05D10122BB6872
:1055A0009A40FB689A6004E00122BB689A40FB685D
:1055B0005A6000BF1437BD465DF8047B704780B564
:1055C00084B000AFF860B9601346FB71FB791A46EE
:1055D000B968F868FFF7D8FF00BF1037BD4680BD37
:1055E00080B483B000AF786039607B683A689A60B5
:1055F00000BF0C37BD465DF8047B704780B485B0B2
:1056000000AF78600B46FB707B681B68FB60FB6833
:1056100023F01803FB60FB78DB0003F01803FA6843
:105620001343FB607B68FA681A6000BF1437BD46FD
:105630005DF8047B704780B584B000AFF860B96056
:105640007A607B681A46B968F86800F04DFE7B689E
:1056500018461037BD4680BD80B483B000AF786077
:1056600039603B681B6801217A6801FA02F2D24373
:105670001A403B681A6000BF0C37BD465DF8047BDA
:10568000704780B483B000AF786039603B681B68B6
:1056900001217A6801FA02F21A433B681A6000BFDE
:1056A0000C37BD465DF8047B704780B483B000AF13
:1056B000786039603B681B6801217A6801FA02F260
:1056C000134018460C37BD465DF8047B704780B523
:1056D00084B000AF7860396039687868FFF7E5FF1B
:1056E000F86039687868FFF7B7FFFB68184610372D
:1056F000BD4680BD80B487B000AFF860B9607A6005
:10570000BB687B617B695A1C7A61C0221A7026E0F3
:10571000FB685A1CFA601B78FB74FB7CC02B02D020
:10572000DB2B0BD015E07B695A1C7A61DB221A70E7
:105730007B695A1C7A61DC221A7010E07B695A1C62
:105740007A61DB221A707B695A1C7A61DD221A7039
:1057500005E07B695A1C7A61FA7C1A7000BF7B688D
:105760005A1E7A60002BD3DC7B695A1C7A61C022F6
:105770001A707A69BB68D31A18461C37BD465DF8A3
:10578000047B704780B584B000AF78607B68D3F845
:105790008831002B2BDD7B68D3F890317A68D2F802
:1057A00094017A6802F188017A68D2F888219847D2
:1057B000F860FB68002B1ADD7B68D3F88821FB6852
:1057C000D21A7B68C3F888217B68D3F88831002B14
:1057D0000DDD7B6803F188007B6803F18802FB68BC
:1057E000D1187B68D3F888311A4600F03EFE7B68FA
:1057F000D3F88831002BCCBF01230023DBB218463D
:105800001037BD4680BD80B584B000AF78607B683E
:10581000D3F88430FB607B68D3F8A021FB681A447E
:105820007B68C3F8A0217B68D3F88C31002B09D0AA
:105830007B68D3F88C317A68D2F894017A68111DAC
:10584000FA6898477B68D3F89C315A1C7B68C3F888
:105850009C2100BF1037BD4680BD80B586B000AF2B
:10586000F860B9607A60BB687B6107E07B695A1CAD
:105870007A611B781946F868FBF770FD7B685A1E41
:105880007A60002BF2D100BF1837BD4680BD80B4CE
:1058900085B000AF03460A46FB711346BB80002368
:1058A0007B81FB799AB2BB885340BB800023FB60AD
:1058B00017E0BB8803F001037B81BB885B08BB80DA
:1058C000BB88C3F30E03BB807B89012B06D1BB8849
:1058D00083F4BF4383F07E03DB43BB80FB6801336B
:1058E000FB60FB68072BE4DDBB8818461437BD4618
:1058F0005DF8047B704780B584B000AF7860396094
:105900007B68FB604FF6FF737B810DE0FB685A1CE0
:10591000FA601B787A8911461846FFF7B8FF0346EC
:105920007B813B68013B3B603B68002BEEDC7B8965
:1059300018461037BD4680BD80B586B000AFF86010
:10594000B9607A60FB687B617B699B687A69D06823
:105950007A68B968984738613B6918461837BD4678
:1059600080BDF0B589B002AFF8600B467A607B81EC
:105970006B461E467B68DD1C6B1E7B612B46194601
:105980004FF000024FF000034FF00004140144EA0E
:1059900011740B012B4619464FF000024FF0000323
:1059A0004FF00004140144EA11740B012B465B0014
:1059B00001330733DB08DB00ADEB030D02AB013332
:1059C0005B085B003B613B692A4652000021184698
:1059D00000F04DFDFB685C68FB68D8683B69191DE9
:1059E0007A897B6800930B460221A0477B681B02E3
:1059F0001BB243F083031BB29AB23B691A803B6926
:105A00007A895A803A692B4603F10043013B5B00D7
:105A100019467B689C1C1046FFF76DFF03461A462B
:105A20003B6923F81420FB681B6839692A46520039
:105A30001846FBF747FC0346B54618461C37BD46DB
:105A4000F0BD80B584B000AFF860B9607A60FB68E3
:105A50001B687A68B9681846FFF7FFFE00BF103769
:105A6000BD4680BD80B500AFFBF752FE0346184629
:105A700080BD80B582B000AFFBF710FF78607B6817
:105A8000002B08D0FCF75EF80346DB087A689A42E0
:105A900001D87B6800E0002318460837BD4680BD6A
:105AA00080B582B000AF03463A60FB710B46BB7114
:105AB000B979FB793A681846FCF77CF90346184631
:105AC0000837BD4680BD80B485B000AF78607B6884
:105AD0001B0C03F1804303F58E23FB60FB68196800
